:100000000C9434000C9451000C9451000C94510049
:100010000C9451000C9451000C9451000C945B0210
:100020000C9451000C9451000C9451000C948403D6
:100030000C9451000C9451000C9451000C945100FC
:100040000C94B2020C9451000C9451000C94510089
:100050000C9451000C9451000C9451000C945100DC
:100060000C9451000C94510011241FBECFEFD8E026
:10007000DEBFCDBF11E0A0E0B1E0E6E0F8E002C0F5
:1000800005900D92AE30B107D9F711E0AEE0B1E0C6
:1000900001C01D92AE31B107E1F70E94C3030C9479
:1000A00001040C94000087E680937C0085E980932E
:1000B0007A00089580917A00829581700895EAE728
:1000C000F0E0808180648083089580917A0080616F
:1000D00080937A009091790081E09B3A08F080E06B
:1000E00008958091070181608093070108958EBD76
:1000F0000DB407FEFDCF08955F980E9477005F9AC8
:1001000008955F9880E60E94770085E50E94770059
:100110005F9A8EB5089581EE0C947C0082EE0C946B
:100120007C005F988FEF0E9477005F9A8EB50895EC
:10013000EF92FF920F931F93CF93DF938B01F42ED7
:100140005F980E94770081E0F81621F0E02EC02F22
:10015000D12F07C085E50E9477008EB5F801808316
:100160000AC08C2F8E198F1530F485E50E94770018
:100170008EB58993F6CF5F9ADF91CF911F910F9142
:10018000FF90EF900895EF92FF920F931F93CF93FC
:10019000DF9300D0CDB7DEB7142F5F9880626983FC
:1001A0007A830E9477006981062FE62E7A81F72EE6
:1001B0008E2D801B811730F4F70181917F010E9401
:1001C0007700F6CF5F9A0F900F90DF91CF911F913C
:1001D0000F91FF90EF900895CF93DF931F92CDB7CB
:1001E000DEB75F98806269830E9477006981862FFD
:1001F0000E9477005F9A0F90DF91CF910895CF937F
:10020000C82F0E949100C82381E009F480E0CF91BB
:100210000895CF93DF931F92CDB7DEB789830E94F5
:100220009100698187E00F90DF91CF910C94EC00F1
:10023000EF92FF920F931F93CF93DF937C01C62F12
:100240005F9881E60E9477008701D0E0C8018E198F
:100250009F098C179D0744F485E50E9477008EB5B1
:10026000F80181938F01F2CF5F9ADF91CF911F91B7
:100270000F91FF90EF900895CF93DF93EC010E94D0
:100280008100682FCE010E9418010E948E0080E438
:100290000E94090181E0DF91CF91089560910701EB
:1002A00062606093070180E00E94EC008FE097E2BB
:1002B0000197F1F700C000000895609107016D7F7C
:1002C0006093070180E00C94EC00289A8DE18A95F8
:1002D000F1F7000028980895CF92DF92FF920F93D4
:1002E0001F93CF93DF93F82E6B01C42F0E948B00D6
:1002F0005F988F2D0E9477008601D0E0C8018C198D
:100300009D098C179D0734F4F80181918F010E949B
:100310007700F4CF5F9AF0EAFF1209C0DF91CF9126
:100320001F910F91FF90DF90CF900C946501DF91AA
:10033000CF911F910F91FF90DF90CF9008955F9A1A
:1003400028986091070180E00E94EC0067E784E054
:100350000E94EC0066E086E00E94EC0045E062E06E
:1003600071E08AE00E94C30045E062E071E080E154
:100370000E94C30061E08CE10E94EC0066E08DE128
:100380000E94EC0080E70E9409010E948B000E94FD
:100390008E000C944E01CF930E946500C82F0E94DE
:1003A0005F000E94440340E4C49F9001112440E296
:1003B000849FC0011124822B8561CF91089581E033
:1003C00080930F01299868EE73E080E090E00C9430
:1003D000F6028CE191E00E943C0180911C0187FFB4
:1003E00009C080911001811105C081E08093100146
:1003F0000E94470380911C0184FD0E94DF018091CF
:100400001C0186FF02C05B9A08955B9808951092C4
:1004100010010895299A60E070E0CB010E94F60275
:1004200010920F010895FC0117BC95B5956095BD1C
:100430005D9A83E080838CE492E090931B0180932B
:100440001A0180E00895FC0117BC95B5956095BD33
:100450005D9A88E0808383E392E090931B01809310
:100460001A0180E0089525E027BD20E1FC012083EA
:1004700080E492E090931B0180931A0180E008953C
:1004800017BC5D9821E0FC012083E0E7F0E080816B
:100490008E7F808381E0089529E027BD20E1FC0163
:1004A000208383E392E090931B0180931A010E94C2
:1004B000DF0182E008951F920F920FB60F92112470
:1004C0002F933F934F935F936F937F938F939F935C
:1004D000AF93BF93EF93FF93809114019091150117
:1004E000A0911601B09117010196A11DB11D809335
:1004F000140190931501A0931601B0931701209158
:100500000901215019F02093090106C022E320932C
:10051000090121E02093130140910A0150910B0140
:1005200060910C0170910D0184179507A607B7071C
:1005300010F00E940A0280910901893111F40E9491
:100540005303FF91EF91BF91AF919F918F917F9155
:100550006F915F914F913F912F910F900FBE0F9030
:100560001F9018951F920F920FB60F9211242F9380
:100570003F934F935F936F937F938F939F93AF932B
:10058000BF93EF93FF93809111018F5F80931101CF
:1005900090910801891310C010921101E0911A0185
:1005A000F0911B0188E091E00995823029F40E94C6
:1005B000070281E080931201FF91EF91BF91AF910B
:1005C0009F918F917F916F915F914F913F912F916B
:1005D0000F900FBE0F901F901895609114017091AD
:1005E0001501809116019091170108950F931F93A3
:1005F000611571058105910579F000911401109143
:1006000015012091160130911701DC01CB01800FFB
:10061000911FA21FB31F03C08FEF9FEFDC018093D8
:100620000A0190930B01A0930C01B0930D011F914F
:100630000F91089581E884BD85E085BD87BD83E283
:1006400092E090931B0180931A01A89AEEE6F0E0E5
:1006500080818160808308958AEF8093B30082E473
:100660008093B00083E08093B100B99AE0E7F0E0B6
:10067000808182608083089580911301882319F01E
:100680001092130181E00895809112010895E0E72E
:10069000F0E080818160808383E192E090931B0190
:1006A00080931A010895439A109285001092840055
:1006B000E8E8F0E04081518126B381E090E001C09C
:1006C000880F4A95EAF7822B86BBAFE6B0E08C91A3
:1006D00082608C9384E690E09183808380E18093B4
:1006E000800089E080938100419A089510928500EE
:1006F000109284008FEF90E090938900809388009F
:1007000083E08093810008951F920F920FB60F929D
:1007100011242F933F934F935F936F937F938F9306
:100720009F93AF93BF93EF93FF9380911901811132
:1007300014C0809118018F5F803118F480931801E4
:1007400011C010921801109280001092810081E077
:10075000809319010E94760305C04398109281008E
:1007600010921901FF91EF91BF91AF919F918F91DD
:100770007F916F915F914F913F912F910F900FBE9D
:100780000F901F9018958AB18A6F8AB95C9A0E945F
:100790001A030E942C030E9453008FE284B987B190
:1007A0008FEF87B918B881E080936900789480E56D
:1007B0008CBD0E949F01C4E00E943C03882351F03D
:1007C0000E94CB018093000142E060E071E080EA8A
:1007D0000E946C0180E40E94FF00882329F088B108
:1007E0008C2788B90E94E90180E10E94FF008823DC
:1007F00019F30E948B000E948E0080E70E9409017D
:06080000DBCFF894FFCFEE
:0E0806001555526F6765727C0132FFFFFFFFD0
:00000001FF
